{
	"data": {
		"bytecode": {
			"linkReferences": {},
			"object": "608060405234801561001057600080fd5b50336000806101000a81548173ffffffffffffffffffffffffffffffffffffffff021916908373ffffffffffffffffffffffffffffffffffffffff1602179055506107bb806100606000396000f3fe608060405234801561001057600080fd5b50600436106100415760003560e01c80638c160186146100465780638d85964c14610064578063da5411a914610080575b600080fd5b61004e61009e565b60405161005b919061019f565b60405180910390f35b61007e60048036038101906100799190610340565b6100ce565b005b610088610102565b60405161009591906103da565b60405180910390f35b60606001600001600180016040516020016100ba9291906104f8565b604051602081830303815290604052905090565b82600160000190816100e091906106b3565b50816001800190816100f291906106b3565b5080600160030181905550505050565b6000600160030154905090565b600081519050919050565b600082825260208201905092915050565b60005b8381101561014957808201518184015260208101905061012e565b60008484015250505050565b6000601f19601f8301169050919050565b60006101718261010f565b61017b818561011a565b935061018b81856020860161012b565b61019481610155565b840191505092915050565b600060208201905081810360008301526101b98184610166565b905092915050565b6000604051905090565b600080fd5b600080fd5b600080fd5b600080fd5b7f4e487b7100000000000000000000000000000000000000000000000000000000600052604160045260246000fd5b61021782610155565b810181811067ffffffffffffffff82111715610236576102356101df565b5b80604052505050565b60006102496101c1565b9050610255828261020e565b919050565b600067ffffffffffffffff821115610275576102746101df565b5b61027e82610155565b9050602081019050919050565b82818337600083830152505050565b60006102ad6102a88461025a565b61023f565b9050828152602081018484840111156102c9576102c86101da565b5b6102d484828561028b565b509392505050565b600082601f8301126102f1576102f06101d5565b5b813561030184826020860161029a565b91505092915050565b6000819050919050565b61031d8161030a565b811461032857600080fd5b50565b60008135905061033a81610314565b92915050565b600080600060608486031215610359576103586101cb565b5b600084013567ffffffffffffffff811115610377576103766101d0565b5b610383868287016102dc565b935050602084013567ffffffffffffffff8111156103a4576103a36101d0565b5b6103b0868287016102dc565b92505060406103c18682870161032b565b9150509250925092565b6103d48161030a565b82525050565b60006020820190506103ef60008301846103cb565b92915050565b7f4e487b7100000000000000000000000000000000000000000000000000000000600052602260045260246000fd5b6000600282049050600182168061043c57607f821691505b60208210810361044f5761044e6103f5565b5b50919050565b600081905092915050565b60008190508160005260206000209050919050565b6000815461048281610424565b61048c8186610455565b945060018216600081146104a757600181146104bc576104ef565b60ff19831686528115158202860193506104ef565b6104c585610460565b60005b838110156104e7578154818901526001820191506020810190506104c8565b838801955050505b50505092915050565b60006105048285610475565b91506105108284610475565b91508190509392505050565b60006020601f8301049050919050565b600082821b905092915050565b6000600883026105697fffffffffffffffffffffffffffffffffffffffffffffffffffffffffffffffff8261052c565b610573868361052c565b95508019841693508086168417925050509392505050565b6000819050919050565b60006105b06105ab6105a68461030a565b61058b565b61030a565b9050919050565b6000819050919050565b6105ca83610595565b6105de6105d6826105b7565b848454610539565b825550505050565b600090565b6105f36105e6565b6105fe8184846105c1565b505050565b5b81811015610622576106176000826105eb565b600181019050610604565b5050565b601f8211156106675761063881610460565b6106418461051c565b81016020851015610650578190505b61066461065c8561051c565b830182610603565b50505b505050565b600082821c905092915050565b600061068a6000198460080261066c565b1980831691505092915050565b60006106a38383610679565b9150826002028217905092915050565b6106bc8261010f565b67ffffffffffffffff8111156106d5576106d46101df565b5b6106df8254610424565b6106ea828285610626565b600060209050601f83116001811461071d576000841561070b578287015190505b6107158582610697565b86555061077d565b601f19841661072b86610460565b60005b828110156107535784890151825560018201915060208501945060208101905061072e565b86831015610770578489015161076c601f891682610679565b8355505b6001600288020188555050505b50505050505056fea2646970667358221220a6c844a0e3c179ed296e396e70704750e4a392584dfbaeb0a61efb46b53edf2064736f6c63430008130033",
			"opcodes": "PUSH1 0x80 PUSH1 0x40 MSTORE CALLVALUE DUP1 ISZERO PUSH2 0x10 JUMPI PUSH1 0x0 DUP1 REVERT JUMPDEST POP CALLER PUSH1 0x0 DUP1 PUSH2 0x100 EXP DUP2 SLOAD DUP2 PUSH20 0xFFFFFFFFFFFFFFFFFFFFFFFFFFFFFFFFFFFFFFFF MUL NOT AND SWAP1 DUP4 PUSH20 0xFFFFFFFFFFFFFFFFFFFFFFFFFFFFFFFFFFFFFFFF AND MUL OR SWAP1 SSTORE POP PUSH2 0x7BB DUP1 PUSH2 0x60 PUSH1 0x0 CODECOPY PUSH1 0x0 RETURN INVALID PUSH1 0x80 PUSH1 0x40 MSTORE CALLVALUE DUP1 ISZERO PUSH2 0x10 JUMPI PUSH1 0x0 DUP1 REVERT JUMPDEST POP PUSH1 0x4 CALLDATASIZE LT PUSH2 0x41 JUMPI PUSH1 0x0 CALLDATALOAD PUSH1 0xE0 SHR DUP1 PUSH4 0x8C160186 EQ PUSH2 0x46 JUMPI DUP1 PUSH4 0x8D85964C EQ PUSH2 0x64 JUMPI DUP1 PUSH4 0xDA5411A9 EQ PUSH2 0x80 JUMPI JUMPDEST PUSH1 0x0 DUP1 REVERT JUMPDEST PUSH2 0x4E PUSH2 0x9E JUMP JUMPDEST PUSH1 0x40 MLOAD PUSH2 0x5B SWAP2 SWAP1 PUSH2 0x19F JUMP JUMPDEST PUSH1 0x40 MLOAD DUP1 SWAP2 SUB SWAP1 RETURN JUMPDEST PUSH2 0x7E PUSH1 0x4 DUP1 CALLDATASIZE SUB DUP2 ADD SWAP1 PUSH2 0x79 SWAP2 SWAP1 PUSH2 0x340 JUMP JUMPDEST PUSH2 0xCE JUMP JUMPDEST STOP JUMPDEST PUSH2 0x88 PUSH2 0x102 JUMP JUMPDEST PUSH1 0x40 MLOAD PUSH2 0x95 SWAP2 SWAP1 PUSH2 0x3DA JUMP JUMPDEST PUSH1 0x40 MLOAD DUP1 SWAP2 SUB SWAP1 RETURN JUMPDEST PUSH1 0x60 PUSH1 0x1 PUSH1 0x0 ADD PUSH1 0x1 DUP1 ADD PUSH1 0x40 MLOAD PUSH1 0x20 ADD PUSH2 0xBA SWAP3 SWAP2 SWAP1 PUSH2 0x4F8 JUMP JUMPDEST PUSH1 0x40 MLOAD PUSH1 0x20 DUP2 DUP4 SUB SUB DUP2 MSTORE SWAP1 PUSH1 0x40 MSTORE SWAP1 POP SWAP1 JUMP JUMPDEST DUP3 PUSH1 0x1 PUSH1 0x0 ADD SWAP1 DUP2 PUSH2 0xE0 SWAP2 SWAP1 PUSH2 0x6B3 JUMP JUMPDEST POP DUP2 PUSH1 0x1 DUP1 ADD SWAP1 DUP2 PUSH2 0xF2 SWAP2 SWAP1 PUSH2 0x6B3 JUMP JUMPDEST POP DUP1 PUSH1 0x1 PUSH1 0x3 ADD DUP2 SWAP1 SSTORE POP POP POP POP JUMP JUMPDEST PUSH1 0x0 PUSH1 0x1 PUSH1 0x3 ADD SLOAD SWAP1 POP SWAP1 JUMP JUMPDEST PUSH1 0x0 DUP2 MLOAD SWAP1 POP SWAP2 SWAP1 POP JUMP JUMPDEST PUSH1 0x0 DUP3 DUP3 MSTORE PUSH1 0x20 DUP3 ADD SWAP1 POP SWAP3 SWAP2 POP POP JUMP JUMPDEST PUSH1 0x0 JUMPDEST DUP4 DUP2 LT ISZERO PUSH2 0x149 JUMPI DUP1 DUP3 ADD MLOAD DUP2 DUP5 ADD MSTORE PUSH1 0x20 DUP2 ADD SWAP1 POP PUSH2 0x12E JUMP JUMPDEST PUSH1 0x0 DUP5 DUP5 ADD MSTORE POP POP POP POP JUMP JUMPDEST PUSH1 0x0 PUSH1 0x1F NOT PUSH1 0x1F DUP4 ADD AND SWAP1 POP SWAP2 SWAP1 POP JUMP JUMPDEST PUSH1 0x0 PUSH2 0x171 DUP3 PUSH2 0x10F JUMP JUMPDEST PUSH2 0x17B DUP2 DUP6 PUSH2 0x11A JUMP JUMPDEST SWAP4 POP PUSH2 0x18B DUP2 DUP6 PUSH1 0x20 DUP7 ADD PUSH2 0x12B JUMP JUMPDEST PUSH2 0x194 DUP2 PUSH2 0x155 JUMP JUMPDEST DUP5 ADD SWAP2 POP POP SWAP3 SWAP2 POP POP JUMP JUMPDEST PUSH1 0x0 PUSH1 0x20 DUP3 ADD SWAP1 POP DUP2 DUP2 SUB PUSH1 0x0 DUP4 ADD MSTORE PUSH2 0x1B9 DUP2 DUP5 PUSH2 0x166 JUMP JUMPDEST SWAP1 POP SWAP3 SWAP2 POP POP JUMP JUMPDEST PUSH1 0x0 PUSH1 0x40 MLOAD SWAP1 POP SWAP1 JUMP JUMPDEST PUSH1 0x0 DUP1 REVERT JUMPDEST PUSH1 0x0 DUP1 REVERT JUMPDEST PUSH1 0x0 DUP1 REVERT JUMPDEST PUSH1 0x0 DUP1 REVERT JUMPDEST PUSH32 0x4E487B7100000000000000000000000000000000000000000000000000000000 PUSH1 0x0 MSTORE PUSH1 0x41 PUSH1 0x4 MSTORE PUSH1 0x24 PUSH1 0x0 REVERT JUMPDEST PUSH2 0x217 DUP3 PUSH2 0x155 JUMP JUMPDEST DUP2 ADD DUP2 DUP2 LT PUSH8 0xFFFFFFFFFFFFFFFF DUP3 GT OR ISZERO PUSH2 0x236 JUMPI PUSH2 0x235 PUSH2 0x1DF JUMP JUMPDEST JUMPDEST DUP1 PUSH1 0x40 MSTORE POP POP POP JUMP JUMPDEST PUSH1 0x0 PUSH2 0x249 PUSH2 0x1C1 JUMP JUMPDEST SWAP1 POP PUSH2 0x255 DUP3 DUP3 PUSH2 0x20E JUMP JUMPDEST SWAP2 SWAP1 POP JUMP JUMPDEST PUSH1 0x0 PUSH8 0xFFFFFFFFFFFFFFFF DUP3 GT ISZERO PUSH2 0x275 JUMPI PUSH2 0x274 PUSH2 0x1DF JUMP JUMPDEST JUMPDEST PUSH2 0x27E DUP3 PUSH2 0x155 JUMP JUMPDEST SWAP1 POP PUSH1 0x20 DUP2 ADD SWAP1 POP SWAP2 SWAP1 POP JUMP JUMPDEST DUP3 DUP2 DUP4 CALLDATACOPY PUSH1 0x0 DUP4 DUP4 ADD MSTORE POP POP POP JUMP JUMPDEST PUSH1 0x0 PUSH2 0x2AD PUSH2 0x2A8 DUP5 PUSH2 0x25A JUMP JUMPDEST PUSH2 0x23F JUMP JUMPDEST SWAP1 POP DUP3 DUP2 MSTORE PUSH1 0x20 DUP2 ADD DUP5 DUP5 DUP5 ADD GT ISZERO PUSH2 0x2C9 JUMPI PUSH2 0x2C8 PUSH2 0x1DA JUMP JUMPDEST JUMPDEST PUSH2 0x2D4 DUP5 DUP3 DUP6 PUSH2 0x28B JUMP JUMPDEST POP SWAP4 SWAP3 POP POP POP JUMP JUMPDEST PUSH1 0x0 DUP3 PUSH1 0x1F DUP4 ADD SLT PUSH2 0x2F1 JUMPI PUSH2 0x2F0 PUSH2 0x1D5 JUMP JUMPDEST JUMPDEST DUP2 CALLDATALOAD PUSH2 0x301 DUP5 DUP3 PUSH1 0x20 DUP7 ADD PUSH2 0x29A JUMP JUMPDEST SWAP2 POP POP SWAP3 SWAP2 POP POP JUMP JUMPDEST PUSH1 0x0 DUP2 SWAP1 POP SWAP2 SWAP1 POP JUMP JUMPDEST PUSH2 0x31D DUP2 PUSH2 0x30A JUMP JUMPDEST DUP2 EQ PUSH2 0x328 JUMPI PUSH1 0x0 DUP1 REVERT JUMPDEST POP JUMP JUMPDEST PUSH1 0x0 DUP2 CALLDATALOAD SWAP1 POP PUSH2 0x33A DUP2 PUSH2 0x314 JUMP JUMPDEST SWAP3 SWAP2 POP POP JUMP JUMPDEST PUSH1 0x0 DUP1 PUSH1 0x0 PUSH1 0x60 DUP5 DUP7 SUB SLT ISZERO PUSH2 0x359 JUMPI PUSH2 0x358 PUSH2 0x1CB JUMP JUMPDEST JUMPDEST PUSH1 0x0 DUP5 ADD CALLDATALOAD PUSH8 0xFFFFFFFFFFFFFFFF DUP2 GT ISZERO PUSH2 0x377 JUMPI PUSH2 0x376 PUSH2 0x1D0 JUMP JUMPDEST JUMPDEST PUSH2 0x383 DUP7 DUP3 DUP8 ADD PUSH2 0x2DC JUMP JUMPDEST SWAP4 POP POP PUSH1 0x20 DUP5 ADD CALLDATALOAD PUSH8 0xFFFFFFFFFFFFFFFF DUP2 GT ISZERO PUSH2 0x3A4 JUMPI PUSH2 0x3A3 PUSH2 0x1D0 JUMP JUMPDEST JUMPDEST PUSH2 0x3B0 DUP7 DUP3 DUP8 ADD PUSH2 0x2DC JUMP JUMPDEST SWAP3 POP POP PUSH1 0x40 PUSH2 0x3C1 DUP7 DUP3 DUP8 ADD PUSH2 0x32B JUMP JUMPDEST SWAP2 POP POP SWAP3 POP SWAP3 POP SWAP3 JUMP JUMPDEST PUSH2 0x3D4 DUP2 PUSH2 0x30A JUMP JUMPDEST DUP3 MSTORE POP POP JUMP JUMPDEST PUSH1 0x0 PUSH1 0x20 DUP3 ADD SWAP1 POP PUSH2 0x3EF PUSH1 0x0 DUP4 ADD DUP5 PUSH2 0x3CB JUMP JUMPDEST SWAP3 SWAP2 POP POP JUMP JUMPDEST PUSH32 0x4E487B7100000000000000000000000000000000000000000000000000000000 PUSH1 0x0 MSTORE PUSH1 0x22 PUSH1 0x4 MSTORE PUSH1 0x24 PUSH1 0x0 REVERT JUMPDEST PUSH1 0x0 PUSH1 0x2 DUP3 DIV SWAP1 POP PUSH1 0x1 DUP3 AND DUP1 PUSH2 0x43C JUMPI PUSH1 0x7F DUP3 AND SWAP2 POP JUMPDEST PUSH1 0x20 DUP3 LT DUP2 SUB PUSH2 0x44F JUMPI PUSH2 0x44E PUSH2 0x3F5 JUMP JUMPDEST JUMPDEST POP SWAP2 SWAP1 POP JUMP JUMPDEST PUSH1 0x0 DUP2 SWAP1 POP SWAP3 SWAP2 POP POP JUMP JUMPDEST PUSH1 0x0 DUP2 SWAP1 POP DUP2 PUSH1 0x0 MSTORE PUSH1 0x20 PUSH1 0x0 KECCAK256 SWAP1 POP SWAP2 SWAP1 POP JUMP JUMPDEST PUSH1 0x0 DUP2 SLOAD PUSH2 0x482 DUP2 PUSH2 0x424 JUMP JUMPDEST PUSH2 0x48C DUP2 DUP7 PUSH2 0x455 JUMP JUMPDEST SWAP5 POP PUSH1 0x1 DUP3 AND PUSH1 0x0 DUP2 EQ PUSH2 0x4A7 JUMPI PUSH1 0x1 DUP2 EQ PUSH2 0x4BC JUMPI PUSH2 0x4EF JUMP JUMPDEST PUSH1 0xFF NOT DUP4 AND DUP7 MSTORE DUP2 ISZERO ISZERO DUP3 MUL DUP7 ADD SWAP4 POP PUSH2 0x4EF JUMP JUMPDEST PUSH2 0x4C5 DUP6 PUSH2 0x460 JUMP JUMPDEST PUSH1 0x0 JUMPDEST DUP4 DUP2 LT ISZERO PUSH2 0x4E7 JUMPI DUP2 SLOAD DUP2 DUP10 ADD MSTORE PUSH1 0x1 DUP3 ADD SWAP2 POP PUSH1 0x20 DUP2 ADD SWAP1 POP PUSH2 0x4C8 JUMP JUMPDEST DUP4 DUP9 ADD SWAP6 POP POP POP JUMPDEST POP POP POP SWAP3 SWAP2 POP POP JUMP JUMPDEST PUSH1 0x0 PUSH2 0x504 DUP3 DUP6 PUSH2 0x475 JUMP JUMPDEST SWAP2 POP PUSH2 0x510 DUP3 DUP5 PUSH2 0x475 JUMP JUMPDEST SWAP2 POP DUP2 SWAP1 POP SWAP4 SWAP3 POP POP POP JUMP JUMPDEST PUSH1 0x0 PUSH1 0x20 PUSH1 0x1F DUP4 ADD DIV SWAP1 POP SWAP2 SWAP1 POP JUMP JUMPDEST PUSH1 0x0 DUP3 DUP3 SHL SWAP1 POP SWAP3 SWAP2 POP POP JUMP JUMPDEST PUSH1 0x0 PUSH1 0x8 DUP4 MUL PUSH2 0x569 PUSH32 0xFFFFFFFFFFFFFFFFFFFFFFFFFFFFFFFFFFFFFFFFFFFFFFFFFFFFFFFFFFFFFFFF DUP3 PUSH2 0x52C JUMP JUMPDEST PUSH2 0x573 DUP7 DUP4 PUSH2 0x52C JUMP JUMPDEST SWAP6 POP DUP1 NOT DUP5 AND SWAP4 POP DUP1 DUP7 AND DUP5 OR SWAP3 POP POP POP SWAP4 SWAP3 POP POP POP JUMP JUMPDEST PUSH1 0x0 DUP2 SWAP1 POP SWAP2 SWAP1 POP JUMP JUMPDEST PUSH1 0x0 PUSH2 0x5B0 PUSH2 0x5AB PUSH2 0x5A6 DUP5 PUSH2 0x30A JUMP JUMPDEST PUSH2 0x58B JUMP JUMPDEST PUSH2 0x30A JUMP JUMPDEST SWAP1 POP SWAP2 SWAP1 POP JUMP JUMPDEST PUSH1 0x0 DUP2 SWAP1 POP SWAP2 SWAP1 POP JUMP JUMPDEST PUSH2 0x5CA DUP4 PUSH2 0x595 JUMP JUMPDEST PUSH2 0x5DE PUSH2 0x5D6 DUP3 PUSH2 0x5B7 JUMP JUMPDEST DUP5 DUP5 SLOAD PUSH2 0x539 JUMP JUMPDEST DUP3 SSTORE POP POP POP POP JUMP JUMPDEST PUSH1 0x0 SWAP1 JUMP JUMPDEST PUSH2 0x5F3 PUSH2 0x5E6 JUMP JUMPDEST PUSH2 0x5FE DUP2 DUP5 DUP5 PUSH2 0x5C1 JUMP JUMPDEST POP POP POP JUMP JUMPDEST JUMPDEST DUP2 DUP2 LT ISZERO PUSH2 0x622 JUMPI PUSH2 0x617 PUSH1 0x0 DUP3 PUSH2 0x5EB JUMP JUMPDEST PUSH1 0x1 DUP2 ADD SWAP1 POP PUSH2 0x604 JUMP JUMPDEST POP POP JUMP JUMPDEST PUSH1 0x1F DUP3 GT ISZERO PUSH2 0x667 JUMPI PUSH2 0x638 DUP2 PUSH2 0x460 JUMP JUMPDEST PUSH2 0x641 DUP5 PUSH2 0x51C JUMP JUMPDEST DUP2 ADD PUSH1 0x20 DUP6 LT ISZERO PUSH2 0x650 JUMPI DUP2 SWAP1 POP JUMPDEST PUSH2 0x664 PUSH2 0x65C DUP6 PUSH2 0x51C JUMP JUMPDEST DUP4 ADD DUP3 PUSH2 0x603 JUMP JUMPDEST POP POP JUMPDEST POP POP POP JUMP JUMPDEST PUSH1 0x0 DUP3 DUP3 SHR SWAP1 POP SWAP3 SWAP2 POP POP JUMP JUMPDEST PUSH1 0x0 PUSH2 0x68A PUSH1 0x0 NOT DUP5 PUSH1 0x8 MUL PUSH2 0x66C JUMP JUMPDEST NOT DUP1 DUP4 AND SWAP2 POP POP SWAP3 SWAP2 POP POP JUMP JUMPDEST PUSH1 0x0 PUSH2 0x6A3 DUP4 DUP4 PUSH2 0x679 JUMP JUMPDEST SWAP2 POP DUP3 PUSH1 0x2 MUL DUP3 OR SWAP1 POP SWAP3 SWAP2 POP POP JUMP JUMPDEST PUSH2 0x6BC DUP3 PUSH2 0x10F JUMP JUMPDEST PUSH8 0xFFFFFFFFFFFFFFFF DUP2 GT ISZERO PUSH2 0x6D5 JUMPI PUSH2 0x6D4 PUSH2 0x1DF JUMP JUMPDEST JUMPDEST PUSH2 0x6DF DUP3 SLOAD PUSH2 0x424 JUMP JUMPDEST PUSH2 0x6EA DUP3 DUP3 DUP6 PUSH2 0x626 JUMP JUMPDEST PUSH1 0x0 PUSH1 0x20 SWAP1 POP PUSH1 0x1F DUP4 GT PUSH1 0x1 DUP2 EQ PUSH2 0x71D JUMPI PUSH1 0x0 DUP5 ISZERO PUSH2 0x70B JUMPI DUP3 DUP8 ADD MLOAD SWAP1 POP JUMPDEST PUSH2 0x715 DUP6 DUP3 PUSH2 0x697 JUMP JUMPDEST DUP7 SSTORE POP PUSH2 0x77D JUMP JUMPDEST PUSH1 0x1F NOT DUP5 AND PUSH2 0x72B DUP7 PUSH2 0x460 JUMP JUMPDEST PUSH1 0x0 JUMPDEST DUP3 DUP2 LT ISZERO PUSH2 0x753 JUMPI DUP5 DUP10 ADD MLOAD DUP3 SSTORE PUSH1 0x1 DUP3 ADD SWAP2 POP PUSH1 0x20 DUP6 ADD SWAP5 POP PUSH1 0x20 DUP2 ADD SWAP1 POP PUSH2 0x72E JUMP JUMPDEST DUP7 DUP4 LT ISZERO PUSH2 0x770 JUMPI DUP5 DUP10 ADD MLOAD PUSH2 0x76C PUSH1 0x1F DUP10 AND DUP3 PUSH2 0x679 JUMP JUMPDEST DUP4 SSTORE POP JUMPDEST PUSH1 0x1 PUSH1 0x2 DUP9 MUL ADD DUP9 SSTORE POP POP POP JUMPDEST POP POP POP POP POP POP JUMP INVALID LOG2 PUSH5 0x6970667358 0x22 SLT KECCAK256 0xA6 0xC8 PREVRANDAO LOG0 0xE3 0xC1 PUSH26 0xED296E396E70704750E4A392584DFBAEB0A61EFB46B53EDF2064 PUSH20 0x6F6C634300081300330000000000000000000000 "
		},
		"gasEstimates": {
			"creation": {
				"codeDepositCost": "395800",
				"executionCost": "24696",
				"totalCost": "420496"
			},
			"external": {
				"addCustomer(string,string,uint256)": "infinite",
				"getCustomerAge()": "2465",
				"getFullName()": "infinite"
			}
		},
		"methodIdentifiers": {
			"addCustomer(string,string,uint256)": "8d85964c",
			"getCustomerAge()": "da5411a9",
			"getFullName()": "8c160186"
		}
	},
	"abi": [
		{
			"inputs": [],
			"stateMutability": "nonpayable",
			"type": "constructor"
		},
		{
			"inputs": [
				{
					"internalType": "string",
					"name": "_firstName",
					"type": "string"
				},
				{
					"internalType": "string",
					"name": "_lastName",
					"type": "string"
				},
				{
					"internalType": "uint256",
					"name": "_currentAge",
					"type": "uint256"
				}
			],
			"name": "addCustomer",
			"outputs": [],
			"stateMutability": "nonpayable",
			"type": "function"
		},
		{
			"inputs": [],
			"name": "getCustomerAge",
			"outputs": [
				{
					"internalType": "uint256",
					"name": "",
					"type": "uint256"
				}
			],
			"stateMutability": "view",
			"type": "function"
		},
		{
			"inputs": [],
			"name": "getFullName",
			"outputs": [
				{
					"internalType": "string",
					"name": "",
					"type": "string"
				}
			],
			"stateMutability": "view",
			"type": "function"
		}
	]
}